:10000000803118280000203085000230840000086C
:10001000031917280230F800F701F70B0D28F80B29
:100020000C289730F700F70B1328800B0A280800DC
:1000300072302100990023008C018E012200920170
:1000400091019401930121000E1022000E10023044
:100050002000A100FA30A2000320A10B2A282100D1
:100060000E1022000E1402302000A100FA30A2006F
:0C0070000320A10B362822002328630087
:020000040001F9
:04000E008439FF1E14
:00000001FF
;PIC16LF1824
;CRC=2CB3  CREATED="26-oct.-16 20:52"
