:10000000803118280000203085000130840000086D
:10001000031917280230F800F701F70B0D28F80B29
:100020000C289730F700F70B1328800B0A280800DC
:1000300072302100990023008C018E012200920170
:1000400091019401930121008E1520008E194828FA
:1000500021000E1022000E1419302000A1000320F0
:1000600021000E1122000E1519302000A1000320DE
:1000700021000E1022000E1019302000A1000320D4
:1000800021000E1122000E1119302000A1000320C2
:060090002200232863009A
:020000040001F9
:04000E008439FF1E14
:00000001FF
;PIC16F1824
;CRC=5C80  CREATED="16-oct.-16 11:55"
