:1000000000308A0018280000213084008313000883
:10001000031917280230F800F701F70B0D28F80B29
:100020000C289730F700F70B1328800B0A280800DC
:1000300003081F398300713083168F000F080317E0
:100040000908C039890003131F129F1200300317DB
:1000500088008312870188018901831383160313A3
:100060000610831206106430A100042083160610C7
:10007000831206146430A100042003172E286300A5
:04400E00C42CFF3F80
:00000001FF
;PIC16F886
;CRC=456A  CREATED="07-oct.-16 16:37"
